:020000040003F7
:20C00000082C002059C1030073C1030075C10300000000000000000000000000000000003F
:20C0200000000000000000000000000077C10300000000000000000079C103007BC1030049
:20C040007DC103007DC103001DC803007DC103007DC10300000000007DC103007DC1030072
:20C060007DC10300E5C703007DC103007DC103007DC103007DC103007DC103007DC103004A
:20C080007DC10300F9C603007DC103007DC1030019C703007DC103006DC703007DC103007F
:20C0A0007DC103007DC10300000000000000000000000000000000000000000000000000FE
:20C0C0000348854600F09EF800480047E5CE0300082C0020056885F3088846680A4AEFF3D2
:20C0E00005839A42304602D1084CA6463047074C064D0646064FF0B4034C034D024E024FB1
:20C10000F0B404480047000000000000FFFFFFFF00000021F9FFFFFF401E00BF00BF00BF3A
:20C1200000BF00BF00BF00BF00BF00BF00BF00BF00BFF1D170470000401E00BF00BF00BF34
:20C1400000BF00BF00BF00BF00BF00BF00BF00BF00BFF1D1704700000321094802680A4383
:20C160000260084802680A4302600748804707480047FEE7FEE7FEE7FEE7FEE7FEE70000EA
:20C18000240500405405004091C70300C1C0030030B50B46014600202022012409E00D467E
:20C1A000D5409D4205D31D469540491B2546954040191546521E002DF1DC30BD03460B4335
:20C1C0009B0703D009E008C9121F08C0042AFAD203E00B780370401C491C521EF9D27047B1
:20C1E000D2B201E00270401C491EFBD270470022F6E710B513460A4604461946FFF7F0FF26
:20C20000204610BD064C0125064E05E0E36807CC2B430C3C98471034B442F7D3FFF754FF3A
:20C220005CD603007CD6030030B58C180278401C13071B0F01D10378401C120906D10278BC
:20C24000401C03E005780D70401C491C5B1EF9D101E00B70491C521EFBD1A142E6D30020E8
:20C2600030BD00003EB518A207CA6D4607C5FF240134002322461749174800F0D7F800F083
:20C28000EFF80028FBD114480178552902D14078AA2818D0224611490F48FFF78FFF0E4838
:20C2A0000B2269460830FFF789FF0A49204600F0A9F8002322460749074800F0BDF800F0E3
:20C2C000CFF80028FBD13EBD464C4153485F4E414D452000282100200422002008200020A3
:20C2E00010B504460C490020087000F0A5FE002810D1411E08481C3081800121C1800749F7
:20C3000001600146083900F0F5FE002802D1024914314C6010BD000024210020C5C303005D
:20C3200070B515490020087000F086FE002822D11148012149020C3081800121C1800F4995
:20C3400001600146083900F0D5FE040013D10C4841690504491C05D02969406989B2FFF79C
:20C3600017FF00E068692969C01E89B248430249091D4860204670BD24210020C5C3030024
:20C380000010001030B5002306E0C45CCD5CAC4201D0012030BD5B1C9342F6D3002030BD57
:20C3A00038B50024684600F033FE0098002807D00A2000F01FFE2046641C6428F2D9012071
:20C3C00038BD00000E480229037813D003290DD0042905D0052908D1002A06D1F7210CE072
:20C3E000002A02D15908490001707047002AFCD1FD2102E0002AF8D1FB210B4003707047F3
:20C400002421002010B5084C0A4621780123194321700146104600F04DFE002803D0207839
:20C4200040084000207010BD2421002010B54968FFF7C4FE10BD000070B5084C0D46217852
:20C440000426314321700146284600F071FE002803D02078FB210840207070BD2421002080
:20C460000148007870470000242100200249014888607047C0C301000005005030B5134C8F
:20C480001148E0601248051F2978405C00F04CF82878002806D0012807D002280FD0032842
:20C4A00005D10FE0FF21013100E08021A160401CC0B22870032801D90020287030BD0121B1
:20C4C0004902F3E74021F1E7C0C3010000050050102100200248FD22817811408170704779
:20C4E000102100200248022281781143817070471021002000B50421002000F03DF80421F3
:20C50000012000F039F80421022000F035F80421032000F031F800BD02490148C8607047E4
:20C52000C0C30100000500500A4A0B49C3070BD08A604208D307094A08D08A608008C20761
:20C54000074805D088607047CA60F2E7CA60F5E7C86070470080000000050050000001005A
:20C5600000400000042803D2024A135C8B4313547047000010210020042803D2024A135CC6
:20C580000B4313547047000010210020094903200860091F08600749091D08600549083904
:20C5A000086004491C310860091D08600149183108607047200700500248FD22C178114067
:20C5C000C17070471021002002480222C1781143C170704710210020F0B507460024FFF7E2
:20C5E00089FF0A4D6E1D05E0295D305DFFF7C4FF641CE4B2BC42F7D305E0295D305DFFF754
:20C60000B1FF641CE4B2052CF7D3F0BD182100200248FD2241781140417070471021002027
:20C620000248022241781143417070471021002000B5094A1078002808D108498868401C98
:20C64000886004D0C82801D10120107000BD0120FFF7C2FF00BD0000DC2100200C210020FF
:20C6600000B50D4A51884B1C5380FF23F533994201D30021518001280BD0002808D15088D3
:20C68000C82806D00146FF39913901D1FFF722FF00BDFFF727FF00BD0C21002010B51149A0
:20C6A00000224A6009230B618A600F4B0122DA600E4C1104616041010C1A0A4940310C60AD
:20C6C0000C6880082018086009490868FF242402A0439403204308600649500208601A60EB
:20C6E00010BD000000950040009000400093004008E400E000E100E010B5064900200860CC
:20C7000048608860C860034940390860486000F05DFF10BD40110140FEB50020C043124DAC
:20C7200002906869019068462E6900F063FA074600F016FB0446002F08D002AA01990098F6
:20C7400000F078FA029800F055FB06E0029800F051FB002801D1002C02D0304600F0F8F992
:20C7600000206871FEBD00005C21002010B507484068002807D08047002803D00022114672
:20C7800000F090F810BD00F081FA10BD8021002010B500F0BBFA002805D00E490C484860A1
:20C7A000C8130D4988610D48018CC9B201290ED1818C09070BD1018D0906090F042906D147
:20C7C000808D0006000F02D105490120886010BDDFFF07C000050040006C0040C00F00F0EB
:20C7E0000006004010B50948016801290CD10021016007490120C8600649087006480078C5
:20C80000002801D0FFF73AFE10BD0000409100400090004008210020DC21002010B500F028
:20C820006FFD10BD10B50C4C6078FFF7D5FE2078C00702D0FFF7F4FE01E0FFF7E9FE207892
:20C84000800702D5FFF7C0FE01E0FFF7B5FE6078FFF7C2FE10BD00000423002010B528218C
:20C860000148FFF7C4FC10BDDC21002030B47446641E2578641CAB4200D21D46635D5B0055
:20C88000E31830BC184702E008C8121F08C1002AFAD170477047002001E001C1121F002A25
:20C8A000FBD17047BFF34F8F03490248C860BFF34F8FFEE70400FA0500ED00E038B50C4623
:20C8C000A2680978032A0AD0064B12019D58628800920246204608302369A84738BD024A4F
:20C8E0001568F4E7E42300205421002000B51C4B87B00FCB03936B4607C3684618DF002819
:20C9000003D000221146FFF7CDFF0F20800313DF002803D000221146FFF7C4FF00234822AB
:20C9200010490A2000F000FD002803D000221146FFF7B8FF00200490059004A860DF00280A
:20C9400003D000221146FFF7ADFF074800F004FD002803D000221146FFF7A4FF07B000BD28
:20C960004CD6030094210020E1D4030070B511DF002803D000221146FFF794FF0F4900207B
:20C980000A680E4B012180330C468440144204D0C506ED0E0C46AC401C60401C2028F3D3CD
:20C9A0000324E403204613DF002803D000221146FFF778FF204600F003F870BD00E100E0F1
:20C9C00010B5FFF787FB10BDF8B5384914230A780F205A4354183649227926698F88241D2D
:20C9E000022A1BD001252D07042A2AD0052A5BD1286981B23046FFF7CBFB0146A38828694A
:20CA00009A1980B24843101A820860881818861928694B1C80B25843801B34E0B802628823
:20CA20002169121A0918A3883018181801239B029A4202D2920829DF31E0FF22013229DFFC
:20CA40002DE0A36819481901CC300818018942894068B04203D160885143814218D0032B0F
:20CA600016D0286981B23046FFF792FB0146286980B24843301A820828694B1C80B25843E5
:20CA800063889B19C01A8308204600F06FFC06E0286981B23046FFF77BFBC01928DF00283D
:20CAA00002D1024901228A70F8BD0000182300204821002010B5084900204A78002A09D0A7
:20CAC0008978002906D1FFF77FFF002802D0112800D1002010BD00001823002014225043CC
:20CAE000054A002180180171C18002220161C260416101817047000018230020F8B5134C91
:20CB0000069E65780A2D1FD027787D19EDB20A2D01D30A3DEDB214277D432D1928710020AF
:20CB200068716A6103C92961E860EB802E81A1780020002904D1FFF747FF112800D10020FC
:20CB40006178491C6170F8BD0420F8BD18230020F8B5224801694A1C3DD024225143826825
:20CB600089184E681E494C6847690079E11B0D022D0AED1C002814D101201A4A0004506089
:20CB8000184A403A5060184940000860174908601749012008602F20FFF7CEFA0F490120C9
:20CBA0000871B54200D23546E81900020C49000A403108600A494968001B091B0902090A1C
:20CBC0000002000AC91C814204D901200649400480390860F8BD00F071FBF8BD5C2100208C
:20CBE000001501404013014080E200E000E100E00010014010B50E4900238A78CC78A2428E
:20CC000012D0521CD2B28A70022A00D18B708A78074B92001C339A580260486910180002EA
:20CC2000000A4861012010BD0360002010BD00005C210020F7B5144C0025A76823691EE09C
:20CC400024215943C9194E68864202D9301A486017E0801B751900264E600E750E699C46F6
:20CC60000B6AB646002E0AD0019E76193602360A8E607646CE6016680E6261461160591C42
:20CC8000DED12361FEBD00005C210020F8B51E4C2078002837D02069002807D00026E06835
:20CCA000002805D00025002E04D013E00126F6E70125F8E7684651DF052806D0002806D075
:20CCC00000221146FFF7EEFD04E0012602E0216900988847002D12D1608869460880A068E5
:20CCE00061DF052806D0002806D000221146FFF7D9FD04E0012502E0E168A0688847002E74
:20CD0000D8D0002DCFD0F8BD802100201048018CC9B2012917D1818C090714D1018D090618
:20CD20000A0F03D1828D1206120F0ED0090F012903D1828D1206120F07D0032903D1808D9E
:20CD40000006000F01D000207047012070470000C00F00F0800701D0002070470120704778
:20CD6000F8B5234801690091457833E02048E900C0680E1834782AE0182060437168641C47
:20CD80000818B178E4B2A14200D100240178022902D003291BD113E0154A40682421926815
:20CDA00041438F18397D002911D000F0D7FB002038750CE024277843C0180275006A03E06B
:20CDC0000B4900228B680869471CF3D108617078A042D1D128466D1EEDB20028C6D10448DA
:20CDE00001690098814201D00120F8BD0020F8BD5C210020F8B504463848002701690091BC
:20CE000046785CE03548F100C2688D1851E0601C07D0324A24209268604321468018046A8D
:20CE200024E02878182141436A68401CC0B252182870A978884200D12F70284B5168242024
:20CE40009B684843C0181378012B34D1037D002B31D193688360D368C3601369036152692C
:20CE6000C2611E4A5279002A00D087601B4B82685B6996469C46D31A1A02194B120A9A4244
:20CE800002D2C368D21808E0724663469A1A1202C368120A934202D99A1A426000E04760C4
:20CEA00087600122C7600275921E0262084600F023FB601CABD1287869788842A7D1304629
:20CEC000761EF6B200289DD1044801690098814201D00120F8BD0020F8BD00005C21002056
:20CEE000FFFF7F0086B0182236A16846FFF766F9FFF7FCFCFFF714FAFFF7B4F9374D03242B
:20CF0000E878E403B12802D02046FFF72FFDFFF7A5FC0220FFF7C2FBFFF738FBFFF7FCFA16
:20CF2000FFF7A4FA5326F6022046FFF7D9F9A8882B4980B2FFF766FAA888002382B228499A
:20CF40003046FFF779FAFFF72BFA214630466A68FFF718FA0128E7D0FFF7E2F9FF20E870F8
:20CF6000451C20492846FFF74DFA00232A461D491A48FFF761FAFFF773FA0028FBD1FFF743
:20CF80000FFA194D194E1A4C002728780028FCD02F703078002811D07078FFF761FBFFF71A
:20CFA00041FC2068411C2160FF21F5318842ECD30320C0032760FFF7D9FCE6E7FFF738FBD1
:20CFC000EFE70000626F6F746C6F616465722D73746172742E2E2E0A00000000042200201B
:20CFE000382100202821002008210020DC2100200420002031B5054C04E0401E0090204636
:20D00000FFF78AF800980028F7D138BDE703000007490978002906D0002806D00549497854
:20D02000016000207047082070470E2070470000482100201823002070B500251A4C1B48FD
:20D04000A58065700570457085702E463046FFF745FD761C0A2EF9D3154865804169060409
:20D06000491C05D03169406989B2FFF791F800E070693169C01E89B24843A0600B4900220C
:20D080002846A580CC311301C8505B1818819881521C5881022AF6D303490C31086088807A
:20D0A00001212170607070BD48210020182300200010001008B50E4A1278002A05D00028F6
:20D0C00005D00268032A11D103E0082008BD0E2008BD074A0C321268002A07D00B460022C2
:20D0E000014604200092FFF709FD08BD072008BD482100200D4A1278002A0DD000280DD010
:20D1000000290BD00268002A08D0084A0C321368002B05D004207047082070470E207047F5
:20D1200003230B60006810600020704748210020F8B5044616481E46007817460D4600281D
:20D1400007D0002D07D0002C05D0206803281BD103E00820F8BD0E20F8BD0D480C300068B8
:20D16000002811D00846FFF7F5FD00280ED03046FFF7F0FD002809D03B462A462146022096
:20D180000096FFF7BBFCF8BD0720F8BD1020F8BD48210020F8B507460020464E8646B078AB
:20D1A00001281ED10020444BB0705A78082A19D034462578142169430C19022F20D0032F2B
:20D1C0000FD16079401CC0B26071241D03286AD0FFF7FAFB002804D0112802D02146FFF702
:20D1E0006DFBF8BD022F09D01870FFF763FC0028F7D0317814225143891959E05870F4E74B
:20D200002D498B885B1C9EB28E802379241D022B05D16788B102B94201D3012100E000213C
:20D220008C46052B01D1072A03D00021042B02D003E00121FAE7072A03D00027042B02D0E2
:20D2400007E00127FAE76488B302A34201D3002A27D00022394311436246114317D0164A2E
:20D260001449507090804878401E4870681CC0B208700A2801D30A38087014206843411845
:20D280007046091DFFF71AFB2846FFF727FCFFF711FC0028A5D0074914230A785A43511871
:20D2A00006E00122D6E730781421484381190D20091D94E7182300204821002070B50124AA
:20D2C0000B49600408600B4940108860094940398860094D6C602F20FEF72EFFAC60074DFC
:20D2E00000242F206C61FEF727FF2C7170BD000080E100E040130140001001405C21002046
:20D30000044881680129FCD10021816002488069C0B27047002100400025004010B50846AA
:20D320001146C046C04610BD70B5002901D08C0701D0072070BD064C0125A160628005493D
:20D34000636010DF0028F5D1257016202EDF70BD802100201DD30300002803D002490861C5
:20D36000002070470E20704780210020FFB583B00F46594D069A059906466B78114303206A
:20D380000191002B03D100290FD001216970059A697801249200240700920B00FFF766FAA4
:20D3A000073207213454748332000221EEE74B484169491C05D02169406989B2FEF7E8FEA3
:20D3C00000E060692169401E89B24843216909048A0C216989B2794329DF002812D1022112
:20D3E0000FE0384628DF00280CD10599002901D0032106E0069900291FD13178042968D04C
:20D4000020E0697007B0F0BD34484169491C05D02169406989B2FEF7BBFE00E06069216920
:20D42000401E89B241432069059A80B2784329DF0028E7D10699002901D00421E1E73178A3
:20D4400004292ED00521DCE724484169491C05D02169406989B2FEF79BFE00E06069216939
:20D46000401E89B248437188421800981018226992B27A4352180099531801461846069A36
:20D4800029DF0028DBD0BDE72069718880B2784380188A08316929DF0028B3D10199002963
:20D4A00017D00621ADE70D484169491C05D02169406989B2FEF76CFE00E060692169401E33
:20D4C00089B24843216989B2FEF762FE28DF002898D1072195E70000482100200010001087
:20D4E00010B5FFF757FE10BD01200249000508607047000000E200E0F0B5174F2421BC6889
:20D5000041430D1939694A1C09D024224A4316196B687268934204D8D21A7260296238613E
:20D52000F0BD0A4602E00A46396A9B1B4E1C0BD024264E4337197E689E42F4D324264E438B
:20D5400036197768FF1A77606B60296224214A4311190862F0BD00005C21002070B5194C1D
:20D560002269A5681346114606E0814207D00A46242671434919096A4E1CF6D170BD002E34
:20D58000FCD08A420CD1242043435819006A2061401C05D10C4B0120986000236361607196
:20D5A000242041434819242341685A43006A52191062421CE2D02422504340194268511819
:20D5C000416070BD5C21002000100140F8B51D4C2569681C35D01C48002640686169401A0C
:20D5E00007023F0A19E024204543A0682A185068B84214D8A3693F1A8619156A002B09D0A5
:20D60000D16990699847002807D000221146FFF749F902E09169D0698847681CE3D1A17813
:20D62000E078814206D1401CC0B2E070022801D10020E07003490006800D1C310E50FFF7EE
:20D6400053FFF8BD5C21002000150140020000000000000000000000000000007CD6030079
:20D66000002000209401000028C2030094D6030094210020740A000096C80300640024F44B
:14D6800005FF55AA55AAF10A74010101010200010203000019
:020000041000EA
:18100000FFFFFFFFFFFFFFFFFFFFFFFFFFFFFFFFFFFFFFFF00C0030029
:00000001FF
