:020000040001F9
:20800000B8380020158101002F810100318101000000000000000000000000000000000055
:2080200000000000000000000000000033810100000000000000000035810100378101001B
:2080400039810100398101007D91010039810100398101000000000065890100398101007B
:20806000398101003991010039810100398101003981010039810100398101003981010018
:20808000398101004D90010039810100398101006D90010039810100C1900100398101000B
:2080A00039810100398101000000000000000000000000000000000000000000000000004A
:2080C0000348854600F0CEF80048004705B90100B8380020401E00BF00BF00BF00BF00BF5D
:2080E00000BF00BF00BF00BF00BF00BF00BFF1D170470000401E00BF00BF00BF00BF00BFB5
:2081000000BF00BF00BF00BF00BF00BF00BFF1D1704700000321094802680A4302600848CF
:2081200002680A4302600748804707480047FEE7FEE7FEE7FEE7FEE7FEE7000024050040B3
:2081400054050040E5900100C180010030B50B46014600202022012409E00D46D5409D429A
:2081600005D31D469540491B2546954040191546521E002DF1DC30BD70B500242546002864
:2081800001DA01244042002901DA01254942FFF7DDFFAC4200D04042002C00D0494270BDE2
:2081A00003460B439B0703D009E008C9121F08C0042AFAD203E00B780370401C491C521EFC
:2081C000F9D27047D2B201E00270401C491EFBD270470022F6E710B513460A4604461946E9
:2081E000FFF7F0FF204610BD30B504460020034600E05B1C934203D2E05CCD5C401BF8D046
:2082000030BDF0B51FB40646002082B005464024019100901BE0019922460F46304600F0D2
:2082200043F8049A059B801A994110D310461946224600F029F8361A8F41019722460120FF
:208240000021009F00F020F838184D4100902046641E0028DFDC019B00982946324607B04B
:20826000F0BD0000064C0125064E05E0E36807CC2B430C3C98471034B442F7D3FFF724FFD0
:20828000CCDD0100ECDD010010B5202A04DB0146203A9140002010BD914020239C1A03460A
:2082A000E3401943904010BD10B5202A04DB0846203AD040002110BD0B46D340D040202456
:2082C000A21A91400843194610BD30B58C180278401C13071B0F01D10378401C120906D15C
:2082E0000278401C03E005780D70401C491C5B1EF9D101E00B70491C521EFBD1A142E6D32E
:20830000002030BD10B5184C2078A31C00280FD0012816D002281DD0032808D101F0F0FAC4
:2083200098800621022001F007FB0020207010BD01F0E6FAD8800321022001F0FDFA0120F4
:20834000F4E701F0DDFA18800421022001F0F4FA0220EBE701F0D4FA58800521022001F0F8
:20836000EBFA0320E2E700007021002010B5152004F0DCFB1D2004F0D9FB002004F0D6FBCC
:208380001E2004F0D3FB0E2004F0D0FB10BD000010B51EA30FCB86B001AC0FC41F484189DC
:2083A0004A1C42810A291CD300211D4A41815278002A16D182781B4C002A14D0817074DF9A
:2083C0001120694608700D22214668467CDF002803D00D2201A968467CDF01F051FB01F09B
:2083E000E3FB06B010BD0121817074DF1120694608700D22214668467CDF002803D00D2295
:2084000001A968467CDF01F099FBE8E74D4953636F6F7465723030303100000004200020DB
:20842000002700202827002070B5254C0025A178002931D0E178234E0029705406D1021DDB
:20844000D2B22271922A01D9A57035E0491CCAB2E2701B4B2179DB888A421AD1B0182038D8
:20846000827F9B1ADB439BB2E380C07F0002101880B2834204D11349002000F0FBFC04E0FC
:20848000002000E0401C8842FCDBA5706570E57013E01818E08070BD09490122497855283D
:2084A00002D0AA2804D007E0002905D1627070BD002901D0A27000E06570E58070BD00000C
:2084C0007A210020BE2C0020FEB5174D089E2F780024002F26D101272F708E2920D8134F51
:2084E0000197009600F018FA14210090FFF72EFE461C074612E0BC4208D1204614214843C7
:2085000000990A4A091A89B2801804E01420074960434018142102F077F8641CB442EAD34C
:2085200000202870FEBD00007A210020282C002010B5FF2401340749204600F0BFF90023FB
:2085400022460449044800F0D3F900F08DFB0028FBD110BD8C2100202027002010B58AB0F2
:208560001C221B496846FFF71BFE1AA207CAFF24013409920891079000232246184919489F
:2085800000F0B0F900F070FB0028FBD115480178552902D14078AA2817D012482038007D2C
:2085A000012812D0224610490E48FFF7F9FD0D48192269460830FFF7F3FD0A480A2207A922
:2085C0002A30FFF7EDFDFFF7B3FF0AB010BD000000DD0100312E302E315F30303031000046
:2085E0008C210020202700204A200020014903200860704724070050F8B5204D204EE878CE
:208600000627204C002812D0217800290FD10121F170012804D0022804D0032807D104E0B0
:20862000102100E05021A17001E06170A77020706078A178084302D0E078002808D00920BF
:2086400004F074FAE078002814D0401EE070F8BD092004F073FAA078002802D0401EA070E7
:20866000F8BD60780028FBD0401E60700820E070A770F8BD0020E870F070F8BD40200020FB
:20868000442000206C21002010B504460C490020087004F0C1FB002810D1411E08482030F5
:2086A00081800121C180074901600146083904F065FC002802D1024918314C6010BD0000C0
:2086C00084210020798801000D4A537A00210D48002B0AD08181012393725172917A002912
:2086E00002D0C189491CC181704783895B1C9BB28381322BF2D3322383819172EEE70000D9
:20870000002700200420002010B500231A4604E0845CE318521C9BB2D2B28A42F8D3D843D6
:2087200080B210BD10B50D4C637D0D480D4A8178002B06D0012319438170FF209130D06114
:2087400008E0D369002B02DD5B1ED36102E04908490081700020607510BD000000270020C8
:208760004420002004200020044800788107044801D5012100E00021C17470474020002034
:208780000027002009498B7B09480022002B04D00123CB73FF23913303E08369002B02DDA7
:2087A0005B1E836100E0CA738A737047002700200420002010B50B490B4A0C780B48E307D1
:2087C00004D001239374C822026207E0036A002B02DD5B1E036201E0002090746008400063
:2087E000087010BD40200020002700200420002070B515490020087004F00EFB002822D1F6
:20880000114801214902103081800121C1800F4901600146083904F0B1FB040013D10C48D1
:2088200041690504491C05D02969406989B2FFF78DFC00E068692969C01E89B24843024924
:2088400008314860204670BD84210020798801000010001038B50024684604F061FA009817
:20886000002807D0012004F053F92046641C6428F2D9012038BD00000F48022917D00329B0
:2088800010D0042907D005290BD1002A09D10178F722114004E0002A03D10178490849000E
:2088A00001707047002AFCD10178FD22F1E7002AF7D10178FB22ECE78421002010B5084CF0
:2088C0000A4621780123194321700146104604F035FB002803D0217849084900217010BD51
:2088E0008421002010B54968FFF75AFC10BD000070B5084C0D462178042631432170014649
:20890000284604F059FB002803D02178FB221140217070BD84210020F0B5069C5527059EB6
:208920002770AA27677005468F1CA770E570002022716371062505E0325C62556D1C401CD5
:20894000EDB2C0B28842F7D3A81EC1B2A01CFFF7DBFE60556D1CE9B2000A6054491CC8B238
:20896000F0BD0000F0B52A4885B0046929480021C1630E46284F45E01420796870434518C6
:208980000120B968B04008423AD0002000900390E8682968C04360400840014602902846FB
:2089A00004F094FD1A48006929686040084016D0224642400192E868C04350400840014619
:2089C0000090284604F082FD019A0098A96890430140039100986968024011400091029813
:2089E000A968A04301400398029A0143686822401040009A104302460A4301D02A69904788
:208A0000761CF6B278788642B6D305B0F0BD00000005005040610040FC210020F0B5074614
:208A200087B0C87805900E780D46002002A90191049000900446EB78AA786878012100F00F
:208A400009F9012F02D124206946487273488168002903D00021816007B0F0BD6F48012185
:208A600081600171A878072806D0082833D0092875D00A2875D1C4E00422291D04A8FFF7AB
:208A80008FFB00F0DDF8012F05D165484078002801D101F09CF8062E63D16148807C002868
:208AA00001D00A245EE0049A5E49501E88427DD85D480023C370594801218170C260417025
:208AC0000371C770183001900093AA781946242000F0C0F84AE05148C16800296BD0027848
:208AE00005998A4233D10178491C01700169B61EC0688919803081425DDA31464B48FFF707
:208B000068FB8022291D4948FFF74AFB002F03D100F0AAF80028FBD140480069B2B283B22B
:208B200043494248FFF7E4FE002801D0032419E000213A4805E06A1812794369D218426160
:208B4000491CB142F7DB0169891901610EE00078401E81420AD0052404E000E001E0062E1A
:208B600011D0072400F06CF8012F41D06846C4722A4C2079002803D0394602A800F04FFA04
:208B80000020A06068E7254E3069F168884212DBF06800280FD07069C04370610422291DD2
:208BA00004A8FFF7FDFA0498716900E003E0884203D00824D6E70124D4E7F1681A48416021
:208BC000B121C1700120B070F770002333711348009318300190AA781946242000F03AF875
:208BE00000F02EF813488178490849008170BBE70B4D68780028B9D100F0D6FF0020E873B4
:208C0000B4E70948C078B128B0D1BFF34F8F0B490948C860BFF34F8FFEE70000B82100200B
:208C200000270020FEFF000020270020542D00209C210020442000200400FA0500ED00E0B7
:208C4000034800218160C1604161016101707047B821002030B5049C2425039865702170B2
:208C6000A270E370606030BD70B50E4E707C0E4C012814D02078254600280ED06868401CD9
:208C80006860012003F044FF6868642807D96520686001203075002070BD00206860207899
:208CA00070BD000000270020842100200A4A10B50320094954321060074A74321060086028
:208CC000111D08600449383108600349283108600A2003F02BFF10BD0007005010B50D484E
:208CE000C07C002806D0152003F028FF1D2003F01DFF05E0152003F019FF1D2003F01EFF2D
:208D0000002003F013FF1E2003F010FF0E2003F00DFF10BD0027002010B50D48C07C00282F
:208D200006D0152003F00AFF1D2003F0FFFE05E0152003F0FBFE1D2003F000FF002003F0B7
:208D4000FDFE1E2003F0F2FE0E2003F0EFFE10BD0027002010B50D48C07C002806D015204C
:208D600003F0ECFE1D2003F0E1FE05E0152003F0DDFE1D2003F0E2FE002003F0DFFE1E20E1
:208D800003F0DCFE0E2003F0D1FE10BD0027002010B50D48C07C002806D0152003F0CEFEBA
:208DA0001D2003F0C3FE05E0152003F0BFFE1D2003F0C4FE002003F0C1FE1E2003F0BEFE47
:208DC0000E2003F0BBFE10BD0027002030B5134900224A6009230B618A60114B0122DA605D
:208DE000104C1104616041010D1A0C4940310D600D6880082818086050046060052048601F
:208E000009490868FF242402A0439403204308600649500208601A6030BD000000950040BD
:208E2000009000400093004008E400E000E100E08307FF22DB0E9A408907090E99400028EC
:208E40000BDA0007000F0838830808489B001818C36993430B43C3617047830804489B0094
:208E60001B181868904308431860704700ED00E000E400E0F0B55B4D85B001260C46074619
:208E80006E724878002321284DD0FF284BD0211D012F11D0002F1BD1202801D0222817D1B2
:208EA000A278012A16D0022A2CD0032A2AD0D01F03282DD2AE732EE0232801D0252807D1AF
:208EC00000912178E378891EA278C9B2FFF7FCFA05B0F0BD444A207910700220507043486F
:208EE000037893704078D0706078202803D00091E378A27808E00092E3786122042100F096
:208F000027FAE5E70091E3782178891EC9B2F6E70A2A00D1EB7300912078E378801EC1B2E8
:208F2000A2786078EBE702A901910093E378A2780121FFF78FFEA1782D48092940D006DCD1
:208F4000012918D007293BD00829C1D138E00A2936D0502918D06429BAD1E07822788118AC
:208F6000891E042905DC2349921E4018211DFFF717F9AE70ACE70090002301220D21019737
:208F8000242000F03DF8A3E72578AD1E0D2D9FDC2A46211DFFF704F90D2D07D00D20411B86
:208FA0001348083840190830FFF713F9FFF7C0FABFF34F8F11491048C860BFF34F8FFEE7F4
:208FC000A87C002884D1012F02D0002F02D003E0AE7301E06E756E7421463846FFF71EFD4D
:208FE00076E7000000270020202800204420002028270020402000200400FA0500ED00E022
:2090000038B5059D049C012D05D0002D02D10094FFF75AFA38BD009400F09AF938BD08B582
:2090200001290AD0002907D141680091C378827801784078FFF748FA08BD41680091C37819
:2090400082780178407800F083F908BD10B506490020086048608860C86003494039086033
:20906000486004F0C5FC10BD40110140FEB50020C043124D02906869019068462E6902F0D4
:20908000C7F9074602F07CFB0446002F08D002AA0199009802F0DCF9029802F0BBFB06E03C
:2090A000029802F0B7FB002801D1002C02D0304601F078FC00206871FEBD00001822002091
:2090C00010B504484068002801D0804710BD02F0C7FA10BD3C22002010B5C0B204F000FB26
:2090E000002010BD10B502F009FB002805D00E490C484860C8130D4988610D48018CC9B201
:2091000001290ED1818C09070BD1018D0906090F042906D1808D0006000F02D10549012030
:20912000886010BDDFFF07C000050040006C0040C00F00F000060040074802680021012ADA
:2091400004D10160054BDA60054BDA724268012A00D14160704700004091004000900040D4
:209160000027002001218902034A002801D091607047D160704700000005005010B504F017
:20918000A1FA00F01BF910BD70B50C4C0C4D00260CE01020205E285C00F090F8208A401CCB
:2091A00020821020205E8C2800DB26821220205E1021615E8842ECD170BD00004C21002047
:2091C0009C2B002070B5264CA078002846D10121A1700C22A25E0A23E35E2046407A0025A6
:2091E0009A4205D1002838D000F0FCF8657234E01C4E327B002A02D1F27B002A2DD00028EE
:2092000002D1617200F0FAF80A20205E902148431549164B4218A06912181279DA61144A72
:20922000D369012BFCD1D561401C0A22A061A25E90235A43895881420FDCA56135736089C4
:20924000401C60816089052800D165810E20205E042802DAE089401CE081A57070BD0000E8
:209260004C21002000270020CC28002000250040002100400248C0890421081AC0B270473D
:209280004C21002006480021418181810170417081700422C28101824182C1707047000064
:2092A0004C21002010B504F01DFCFFF7EBFF02490120C86110BD00000021004070B5224D18
:2092C0000024A97900292BD0EA792049002A885406D1031DDBB22B72882B01D9AC712FE078
:2092E000521CD2B2EA71184B2E7A9B8AB24214D188182038827F991AC94389B2A982C07FBB
:209300000002101880B2814203D110490120FFF7B1FDAC716C71EC7113E01818A88270BD6B
:20932000094901224979552802D0AA2804D007E0002905D16A7170BD002901D0AA7100E01E
:209340006C71AC8270BD00004C21002040280020FEB5184C844625780898002D28D1012556
:2093600025700025842922D80E26A65F002E1EDD0C27E75F902677430F4E0090BF193F1D20
:2093800001976046FFF7C8FA0C21615E902251437050A089401CA081A089052800D1A581F2
:2093A0000E20205E002802DDE089401EE0812570FEBD00004C210020CC280020084912235B
:2093C000064ACB5ED054488A401C48821220085E8C2801DB00204882704700009C2B002048
:2093E0004C21002010B504490120087100220F21142004F045F910BD4C21002010B5044910
:2094000000200871024614210F2004F039F910BD4C21002010B51E210448FEF7DAFE04481E
:20942000712101710021417110BD000000270020442000200FB410B503A9044B044A029852
:2094400000F024F810BC08BC04B01847A9B401006821002030B47446641E2578641CAB422C
:2094600000D21D46635D5B00E31830BC184702E008C8121F08C1002AFAD170477047002027
:2094800001E001C1121F002AFBD17047FFB591B00F460546002606E025280AD0149A139929
:2094A00090476D1C761C28780028F5D1304615B0F0BD002400940121F34A029400E0044370
:2094C0006D1C2B780846203B98401042F7D128782A280ED0022128780246303A092A15D860
:2094E000009A0A235A43303A80180C436D1C0090F1E701CF0090002805DA012040030443B4
:20950000009840420090022004436D1C28782E2815D10420044368786D1C2A280AD101CF02
:209520006D1C02900BE002990A225143303940186D1C02902878014630390929F3D9287800
:209540006C2810D006DC4C281AD068280ED06A2817D104E0742813D07A2812D110E0012076
:20956000400504430CE00121090501E0032109050C436978814203D10120000524186D1C7E
:209580006D1C287803906E281ED00CDC632831D004DC00288AD0582811D1B2E064287BD0EA
:2095A00069280CD178E073282DD004DC6F2870D0702804D1A7E075286CD078286BD0149A40
:2095C00013999047761C62E06002400F022807D003280AD0042838680AD006603F1D56E0DF
:2095E0003868F11706604160F8E738680680F5E70670F3E73878694608740020487404A828
:209600000390012003E0386803900020C0433F1D61070FD5002101E00199491C029A019186
:20962000914213DA8142F7DB019A0399895C0029F2D10BE0002101E00199491C019181428C
:20964000FADB019A0399895C0029F5D101990098139A401A00902146149B00F03BF901998D
:209660008019461807E0039803990078491C0391149A139990470198401E0190401CF2D18C
:209680002146149B139A009800F014F986196D1C09E741E033E034E00A200021049005919D
:2096A0006002410F022905D001CFC2179446032905D007E0FF1DFF08FF0003CF06E000B201
:2096C000C2179446042902D140B2C1178C4600226146944506DA0A460021404291418C4622
:2096E0002D2102E0210504D52B216A461176012103E0E10701D02021F7E7019154E00A20EB
:209700000BE0102009E01020049000210420044308200591029003E008200021059104904F
:209720006002410F022905D001CF00229446032906D006E0FF1DFF08FF0003CF8C4603E01A
:2097400080B2042900D1C0B20021019121072BD50399702906D0049A1021059B4A401A432B
:2097600005D00EE040216A461176012108E06146014306D030216A461176039951760221B5
:209780000191049A0821059B4A401A430CD16146014301D1610707D530216A461176012161
:2097A00001910299491E02910399582904D037A103910FA90F910DE039A1F9E76146059BDF
:2097C000049AFEF71EFD039B8C469B5C0F9A521E0F92137061460143F0D10F9807A9081A12
:2097E00020300390600704D5012000048443029801E0012002900399884201DD401A00E0AE
:20980000002041180290019809180098401A0090E00306D42146149B139A009800F05AF8A7
:2098200086190020049008E006A9085C149A139990470498401C761C049001998842F3DB59
:20984000E0030CD52146149B139A009800F042F8861904E0149A302013999047761C02998E
:20986000481E02900029F5DC08E00F980F990078491C0F91149A13999047761C0399481E7D
:2098800003900029F1DCFBE6092801003031323334353637383961626364656600000000CA
:2098A0003031323334353637383941424344454600000000F8B5044600251E46174688049D
:2098C00004D405E039462020B0476D1C641EF9D52846F8BDFFB50446002581B01E46C80396
:2098E00001D5302700E02027880404D505E038460399B0476D1C641EF9D5284605B0F0BD10
:209900000A490020401C0A68C0B2002A01D16428F8D30022C8280A6004D3054901204860D7
:2099200000207047034880687047000000710040007000400075004007290BD801221346C1
:209940008B40190201436820014303484160026002480260704700000075004000700040FB
:20996000F7B582B000250646157000781446002805D03046039903F087F8050008D1B078BA
:2099800000281ED02078039F001D1F2802D90C2005B0F0BD684679DF0028F9D121780322F4
:2099A000481C20707A5421781922481C20707A542078C1196846008804F0ACF8217840181E
:2099C00020707068002815D00021415622788C46D01C03991F28DAD8501C022320708B546D
:2099E00022780A23501C20708B5420786246431C23700A543089002809D030460094062249
:209A000002210830039B04F003F90500C0D1308A002809D030460094072203211030039BD7
:209A200004F0F6F80500B3D1308B002809D030460094152214211830039B04F0E9F80500C9
:209A4000A6D1306A002805D02246039900F0FCFF05009DD1706A002805D02246039902F0C9
:209A600098F9050094D12C20805D002806D022463046039903F04CFD050089D1284687E7D3
:209A800030B52C48A7B040681D90052430216846FEF79FFB02256846057000218170C4707A
:209AA000012418A8047322461BA9204602F012FA00283CD118A8057301221BA9900302F0E1
:209AC00009FA002833D1FF20573010A9088602221CA9900302F0FEF9002828D124A871DFC8
:209AE00024A906220131102002F0F4F91EAA00211FA802F081F9002819D10F4910A801846D
:209B000018A8017E10A8C91E81841FA81A9018A80A9008A8047330210CA8FEF75AFB10A869
:209B200004801DA811900CA9684600F067FB27B030BD0000E8DC010095FE000030B5174826
:209B40009DB000681B90052530216846FEF741FB02206946087000248C70CD7030210CA8A0
:209B6000FEF737FB012010A908801BA811900C482021017044708470C4700471DF214171EF
:209B8000084A10A90A8406228A841A9018A809900CA9684600F032FB1DB030BDE8DC0100F4
:209BA000322000204E42000000B587B018216846FEF70FFB0020694608700190087240201F
:209BC0000882B4204882684673DF07B000BD74DF70470000BFF34F8F03490248C860BFF3DF
:209BE0004F8FFEE70400FA0500ED00E0014B1B68184700000030002038B50C46A26809788A
:209C0000032A0AD0064B12019D58628800920246204608302369A84738BD024A1568F4E76E
:209C2000C02E0020F421002070B50F4B05241D785E78AE4215D01D781C789E88B44201DAD9
:209C4000641C00E000241C705C88DE686C43A41904609B68E800C418A4880C8018580024E7
:209C60001060204670BD000008220020F7B5344C8646608882B00F4681425FD80020694667
:209C8000087031492F4E4868C005C00D18D0103840B2002807DA0207120F083A9208920050
:209CA0005118C96904E08108284A8900891809688007C00EC1400806850F012D01D105E0B2
:209CC0000425684636DF022800D172B623786178A288914201DA491C00E00021C8B298426F
:209CE00007D066786178914201DA491C00E000216170012D03D062B66846007837DF114843
:209D0000864219D0A068F50004994151714600290CD0002F0AD060883A464643E068301820
:209D2000FEF73EFAA0682818878002E0002128188180002005B0F0BD0420FBE70920F9E7D2
:209D400008220020FFFF000000ED00E000E400E00EB504E068468188029A0098904702AA15
:209D600001A96846FFF760FF0028F3D00EBD000030B5CB0008339DB293070024002B01D08C
:209D8000072030BD044B9A605219DA605C701C7058809980002030BD082200200249496825
:209DA00001600020704700000015014070B5114CA568002D06D0002A06D0002804D0002364
:209DC000247809E0082070BD072070BD24265E43AE5D002E04D05B1CA342F7DB042070BDDE
:209DE000242401265C432E5564196170A2610360002070BD18220020FFB59807002481B0CF
:209E00001E4615460F4600280BD1002E09D003F0EBFA22490A9888610F70324600208E6050
:209E200008E0072005B0F0BD24234343D4549B181C75401CB842F7DB24204743BB1903208B
:209E400048700F461846CB6019461830002218232E465E43D3005B181C705C709D705860F0
:209E60003018521C032AF5DB0020C0433861BC70FC7001240A482405046003211420FEF78A
:209E8000D7FF08480460084C0198A06003211120FEF7CEFF606878610020C3E7182200206F
:209EA00080E200E000E100E000150140FEB504461D48174682680D46002A0CD001788C4200
:209EC00001D2052D01D20720FEBD214624235943535C012B01D00820FEBD8818407801286E
:209EE0001DD0002603F058FEC0000F490190C9684018694603F07AFE002812D0012101701D
:209F00000A49446049680830E2C007490198C96841180098487003F0F9FC0020FEBD2E46C5
:209F2000E0E70420FEBD00001822002000150140F8B5144D0446A868002809D029788C42F3
:209F400001D30720F8BD24216143405C012801D00820F8BD03F020FEC600E86869463018D7
:209F600003F044FE00280AD0022101704460E86831180098487003F0C9FC0020F8BD0420D8
:209F8000F8BD00001822002070B5049D0C46002A01D00FA018E018A0FFF74CFA00201A4981
:209FA000022C08700BD0032C06D0042C0AD0052C0CD1294615A007E029461CA004E029467A
:209FC00021A001E0294627A0FFF734FA70BD00005B455D3A20666C617368206F70657261BC
:209FE00074696F6E206572726F722C206F70636F64653A25640D0A0070736D2063616C6CB1
:20A000006261636B0D0A0000042000205B445D3A2075706461746520737563632E206C658E
:20A020006E203D2025640D0A000000005B445D3A206C6F616420737563632C206C656E2026
:20A040003D2025640D0A00005B445D3A2073746F726520737563632E206C656E203D202583
:20A06000640D0A005B445D3A20636C65617220737563632E206C656E203D2025640D0A0090
:20A0800010B50020054B04E01C18C03424780C54401C9042F8D3002010BD00002027002036
:20A0A00070B50020064B04E01C180D5CC0342570401C9042F8D3FEF73BFA002070BD000090
:20A0C0002027002030B585B0044600BF0121684681744049018200BF3F4A04A90120A0DF90
:20A0E0000546002D02D0284605B030BD012000223A4B0290009301920390234624330C2205
:20A10000374900F0CDFA0546002D01D02846EBE700200122334B029000930192039023460A
:20A1200024330222211D104600F0BAFA0546002D01D02846D8E7002001222B4B0290009318
:20A1400001920390234624330A22211D042000F0A7FA0546002D01D02846C5E70020012155
:20A16000224B01900093029103902346243304221F49102000F094FA0546002D01D0284675
:20A18000B2E7002001211B4B0191009302910390234624331422211D132000F081FA054616
:20A1A000002D01D028469FE700200121124B0191009302910390234624330C22211D142063
:20A1C00000F06EFA0546002D01D028468CE700208AE7000095FE0000802200208222002053
:20A1E000243000208A220020922200209A22002030300020A2220020AA22002070B50C46A8
:20A2000092B000216A46117007251171002809D0C17849070CD502A9FFF7A2FB002808D152
:20A2200002AE00E00026002C0ED0E078002802D0284612B070BD01AA0AA92046FFF790FB6A
:20A240000028F6D10AAA00E00022684603790178304672DFEDE7000070B5054601461C2226
:20A260000F48FDF79DFF0F4C002626702968002907D00822A018FDF793FF204608307ADFF0
:20A2800002E0084808307BDF002808D1401E608004486670044A0021001DFFF787FD70BD66
:20A2A000E02E00205022002035DB0100F8B5224C028800271F4DE689102A16D029464968E6
:20A2C000112A21D0122A2DD0502A1CD1C288801DB24218D1028B022A15D1C27E837E1002FC
:20A2E0001843C007C00F0CD112E08188698001461048082216311030FDF752FF6F70002E0A
:20A3000001D100F0E9FBF8BD0020C04368806F700846FFF70DFE0028F5D0A1690029F2D0C7
:20A320008847F8BD811D034808221030FDF738FFE7E7000050220020E02E002010B504467E
:20A34000008801280FD0204600F022FD2046FFF7ADFF204600F050F9204600F0C3F82046DA
:20A3600002F000FC10BD02490120087010BD000082210020F0B591B0044614223EA101A8C0
:20A38000FDF70EFF4149206808600020C0430881A0884881A0790873E069886160690861AD
:20A3A000A06948610A22E11D3948FDF7F9FE394871DF01F0F3FD0C2201A93748FDF714FF45
:20A3C000002806D00C2201A93448FDF70DFF00280AD1002606E0B100304A8818FFF7DEFC81
:20A3E000701CC6B2032EF6DB2046FFF76BFE0546002D03D029462AA0FFF71CF8334A002166
:20A400003348FFF7D3FC0546142201A93148FDF7EBFE002809D006A80C231F4A142100906F
:20A420002C4802F00BF906AF00E02A4F2A4908883A46142102F056FA06A80C23164A19460E
:20A440000090164802F0FAF82449088806AA0C2102F048FA06A80C230F4A0A2100900C48D7
:20A4600002F0ECF81E49088806AA0A2102F03AFA002011B0F0BD0000FFFFFFFFFFFFFFFF88
:20A48000FFFFFFFFFFFFFFFFFFFFFFFF403000207C300020C4220020243000207030002032
:20A4A0005B455D3A204D69205365726976636520496E6974206661696C2C206572726F72B8
:20A4C00020636F64653D25640D0A00009DC30100BC2200205C300020A2220020AA22002009
:20A4E0009222002010B504462088102804D0112807D050280FD109E02146084802F072FB5E
:20A500000AE02146054802F083FB05E02146034802F082FB00E000BF00BF10BD403000206C
:20A5200030B5184B0D4604000FCB85B003936B4607C324D0002D22D00020C043A082286874
:20A54000A0610020A0752146684663DF002814D121786846817401210182A21C04A90120F4
:20A56000A0DF002809D12946204602F05FFF002803D12946204603F075FA05B030BD0E2032
:20A58000FBE70000D8DC010000281ED000291CD00A88102A14D0112A14D0502A15D1CA8878
:20A5A000038A891D9A4202D10B8B022B0ED083889A420AD18369002B07D00A8B1A31184729
:20A5C000898801E00021C94381827047CA7E8B7E11021943C907C90F00D00121817570479B
:20A5E00008B50348009069460248FFF799FF08BD4DCB0100D022002010B501460148FFF701
:20A60000C3FF10BDD022002003B51149114B8A8A85B09A4209D08B7D002B06D06B461B8BCD
:20A62000142B04D9072007B000BD0820FBE7002300930193029303938B8969460B80039003
:20A6400006A80290012088701046A6DFEBE70000D0220020FFFF00001CB5044681786A4620
:20A660000C4802F071FB002812D160781C21484309491C2340181A46694602F00BFC06483E
:20A6800006494030807A80000A582146684690471CBD000078220020C02F00202CDD010087
:20A6A000F0B591B007460D4614461E4600BF002D01D0012000E0002001900198002806D14F
:20A6C00000BF002211461046FFF784FA00BF00BF00BF002C01DD012000E0002001900198E6
:20A6E000002806D100BF002211461046FFF772FA00BF00BF1C2109A8FDF76BFD00200290F1
:20A7000000BF6846007A01090901491C68460172007AF021884310306946087200BF00BF7B
:20A720006846407A01090901491C68464172407AF021884310306946487200BF6846807A31
:20A7400006218843811C6846817208A80079022188431799490002221140014308A80171DE
:20A760000079082188431899C90008221140014308A80171007910218843199909011022AE
:20A780001140084308A9087100200A900C900D901998002802D002A80E9001E000200E906E
:20A7A00000200F9000BF012110A88170078000BF0020039031786846017371784173807BF4
:20A7C00006218843811C68468173807B08218843014668468173807B102188430146684684
:20A7E0008173807B4108490068468173142104A8FDF7EFFC10A8049003A8059068460483B5
:20A80000002141838483089504AA09A902480088169BA2DF11B0F0BD80220020F8B53849ED
:20A8200014230A780F205A4354183649227926698F88241D022A1BD001252D07042A2AD08D
:20A84000052A5BD1286981B23046FDF77FFC0146A38828699A1980B24843101A82086088E5
:20A860001818861928694B1C80B25843801B34E0B80262882169121A0918A3883018181877
:20A8800001239B029A4202D2920829DF31E0FF22013229DF2DE0A36819481901CC30081889
:20A8A000018942894068B04203D160885143814218D0032B16D0286981B23046FDF746FC2A
:20A8C0000146286980B24843301A820828694B1C80B2584363889B19C01A8308204602F0EE
:20A8E00047FF06E0286981B23046FDF72FFCC01928DF002802D1024901228A70F8BD0000DB
:20A90000F42D0020E821002010B5084900204A78002A09D08978002906D1FFF77FFF002835
:20A9200002D0112800D1002010BD0000F42D002014225043054A002180180171C180022265
:20A940000161C2604161018170470000F42D0020F8B5134C069E65780A2D1FD027787D196F
:20A96000EDB20A2D01D30A3DEDB214277D432D192871002068716A6103C92961E860EB80A0
:20A980002E81A1780020002904D1FFF747FF112800D100206178491C6170F8BD0420F8BDCE
:20A9A000F42D0020F8B5224801694A1C3DD024225143826889184E681E494C684769007903
:20A9C000E11B0D022D0AED1C002814D101201A4A00045060184A403A506018494000086051
:20A9E000174908601749012008602F20FDF782FB0F4901200871B54200D23546E8190002AD
:20AA00000C49000A403108600A494968001B091B0902090A0002000AC91C814204D90120EB
:20AA20000649400480390860F8BD02F0DDFCF8BD18220020001501404013014080E200E0A7
:20AA400000E100E000100140F8B50D4611780646881D14461F2801D90C20F8BD338807202C
:20AA6000062BFAD31927FF01BB4202D9164A9342F3D17288062AF0D3BA4202D9124FBA42A6
:20AA8000EBD1114FBB4203D0BA4201D09342E4D8481C052220706A5420781222411C2170D9
:20AAA0002A5420784119308803F034F821784018C0B220704119708803F02CF82178401802
:20AAC00020700020F8BD0000FFFF000010B500221146FFF77FF810BDF8B5164800F000FEA2
:20AAE000144D0026103D144C002807D0616900291BD001206A461070684615E02878002889
:20AB000005D06169002910D0684606700CE0687800280CD0A16800226868FFF7C7F90028C0
:20AB200003D0A169002900D088472E70F8BD6168F1E7000060220020E02E002070B5094B33
:20AB400004469E7A082000250E4207D00648844202D01889A04202D10020156070BD0520FC
:20AB600070BD0000F42F0020FFFF00000C214843064910B5012240188272911E0181FF21DB
:20AB8000C1720721FDF725FB10BD0000F42F0020FEB50E46044681786A46234802F0D4F813
:20ABA000002827D160780C21204F4843C019807A400620D4022E1ED0012E1ED01C4DA078AD
:20ABC0001C21484319490023F83941181C226846A847002813D0022E0CD020780C2148435C
:20ABE00012490C314018807A124980000A58214668469047FEBD104DE1E7104DDFE7022E0F
:20AC0000F8D060780C214843C019817ABF221140817260781C2148430449343941181C23F1
:20AC20001A466846A847D8E778220020F42F002061D701001CDD0100CDD2010015D10100A1
:20AC400070B50546114A124800241C2363431B189B7EFF2B04D0641C072CF6D3104670BD7D
:20AC60000A78022A09D01C2262431018FD22827607221030FDF794FA04E01C21614308185B
:20AC8000FE2181762C700022E8E7000043800000FC2E0020F7B505250F4F06460024002E32
:20ACA0000AD01C206043C019072231461030FDF79BFA002807D00AE01C206043C019018B6C
:20ACC0000298814203D101980025046002E0641C072CE4D32846FEBDFC2E00207CB50546E6
:20ACE00081B26A46074802F02FF8040008D15421684602F053F8040002D1284601F0F4FFA3
:20AD000020467CBD7822002010B50C46014604220948FDF745FA207811280BD106488078DF
:20AD2000FF2807D004480121401E002249048068FFF7BCF8002010BDAD2100201FB502F0A7
:20AD40006BF803A800F018FA00281BD101A805210130FDF73EFA694648790122104302219A
:20AD60000843E3210840DF21001D084069464871072088711020C871034800900A71034845
:20AD800000F00CFB04B010BD09AD0100AC210020F0B5054693B000200290FF22EA480E92BF
:20ADA0000078002845D0E94F3868002841D001A800F0D4F9281D05902A2069460883FF20EA
:20ADC000002688710E71039628883C460C3C10280ED0A88803AA0221FFF7B0FE002807D108
:20ADE00003980C2141430919CA7A69468A7148712888132217287CD00FDC10281BD0112887
:20AE000053D0132876D0142813D103980C2148430019C07AFF2871D08DE0CD4918286BD062
:20AE20001C286AD0522804D1B87A8000095801A8884713B0F0BDC74F03AA01213846FFF7F1
:20AE40007DFE0028F5D103990C20484302220019827211236A4613745171A98801810722FC
:20AE6000A91DFDF79DF9287DC10707D04108B6480830405CFF2808D00E9006E03A460EA969
:20AE8000A81DFFF707FF00280ED103990C22514309190E98C8728A7A08231A438A72694653
:20AEA000887101A8FFF7D8FB39E103980C2148430119887AFD2210408872010706D5C00989
:20AEC0000DD0002101A8FFF763FE08E068468079FF2804D001F008FFFF2069468871039890
:20AEE0000C22504310210019817212206946087415E17FE030E001E0D5E00EE1EA890EA9E3
:20AF00000020FFF7C7FE00280ED103980C22504300190E99C172827A08231A4382726846DA
:20AF2000817101A8FFF798FB03980C2148430019C07AFF2806D003981C21484383494039A2
:20AF40004018029003981C21484383494218A8880023029982DF6CE768460274039B0C20EE
:20AF600058430119887A042210438872C87AFF2830D01620694608741820434373480E2135
:20AF8000243818180830FDF724F903980C2148430019817A40221143817203990C220020E2
:20AFA0004A430A901219D27A1C235A436A4B0C90D2180B921C2251431A46C43289180791DE
:20AFC000089009903A1DA88807AB00217FDF0028C1D1A4E00EA8FFF733FE002801D0064628
:20AFE000DBE769460E98887103990C2251430919C872D2E7787A400840007872039A0C20A1
:20B000009446424311198B7AFB2003408B7214206F463874A879002804D0C87AFFF75EFE01
:20B02000AE797CE0E879400779D5B879FF2876D008273B438B72EB7A9B0708D51C250346E1
:20B040006B43454D5B199D7E6D086D009D76CB7AFF2B64D0A25C022A10D01C2250433E4D23
:20B06000072240191030FDF79BF8684680791C2148434019817EFD2211400EE061461C227D
:20B080005143324A403A89184A8A1C214843324940180283817E490849008176012101A836
:20B0A000FFF776FD3BE0A8790209012A23D10007000F01281FD103980C2242431219927A0D
:20B0C000120718D5182148432049243940180E210830FDF77EF816206946087403980C218E
:20B0E00048430119887A602210438872787A0221084378720FE003980C2250430019827A30
:20B1000080231A43827215206A461074B87A8000095801A88847002601E0684602743246A4
:20B1200004A901A8FEF762FD6846007C122800D07FE603980C2141430919897A0129F7D06A
:20B14000FFF714FD75E6000068220020003000203CDD0100FFFF0000FC2E0020002806D033
:20B16000FF21017041708170C170002070470148704700000E800000F0B585B0040036D022
:20B18000294800250560457285722846FFF7EEFC254818212438FDF71CF80026FF273046EC
:20B1A00001F0A2FD21488755761C072EF7D35421684681800721C1801D481C490090083109
:20B1C000684601F02BFF00280FD1184E0120083E3070207800280CD069468888C9884843FA
:20B1E00081B23046103001F0D9FD05B0F0BD1148FBE7114F00240D48A1B202AA083001F001
:20B20000A3FD002809D11C206043C01900231C2202A901F03FFE002801D03570E5E7641CB0
:20B22000072CE8D3E1E7000000300020702200203DB201000E800000FC2E0020FFB554483E
:20B240008FB00068189F1E46002866D0542F64D86846FFF783FF00246846047004712546C3
:20B2600005970696A9B20DAA4A4801F06DFD002806D108220DA90F98FCF7B6FF002819D058
:20B280006D1C072DEED3684680780790FF2844D010982025042810D03F481C21301AFCF7BE
:20B2A00055FF0127072825D204A802901198002812D019E068468570E5E7542F03D04020DD
:20B2C0006946087101E06846057168460179032001436846017150E00798394681402D480E
:20B2E00010384068014218D0079802F019FC6846057139E026481C214038301AFCF726FFCB
:20B3000000280CD0224D1821243D701BFCF71EFF00281BD040206946087113B0F0BD04A8CE
:20B32000029068460571447019480A940C300B904C380790684680781C214843164940188D
:20B34000089007A80690182005900DE03021684601714470C7700E480C38807A800703D408
:20B3600028461821FCF735FF10986946032808790BD0022108436946087104A8029001A9A3
:20B380006846119AFEF732FCC7E73843F4E700000030002078220020FC2E002070B5064668
:20B3A00018480D46007800280ED01749002E0ED0002D0CD02868002809D0144C2168002944
:20B3C00007D011480A3870BD0F48801F70BD084670BD20600522691D201DFCF7E1FE287953
:20B3E000A072207A0221400840000843FB2210402072E0790123184308431040E0710020C8
:20B40000307070BD682200200E8000000030002010B50E4900238A78CC78A24212D0521C1E
:20B42000D2B28A70022A00D18B708A78074B92001C339A580260486910180002000A48617F
:20B44000012010BD0360002010BD000018220020F7B5144C0025A76823691EE024215943A9
:20B46000C9194E68864202D9301A486017E0801B751900264E600E750E699C460B6AB6465E
:20B48000002E0AD0019E76193602360A8E607646CE6016680E6261461160591CDED1236178
:20B4A000FEBD00001822002010B5FDF715FE10BD002070470020704700207047F8B5064660
:20B4C0004078182104464C4324490C2250436118224A00254B6818328018AE462F469C468A
:20B4E000002B0CD0827A1346D20908D05A0606D40D461A4A614689B2175908358E46174C86
:20B50000008918343B4672462946A9DF0B2819D0002800D01248012F13D170780C21484304
:20B52000001900890F4AA7DF00280AD00E49884212D0082810D0891C88420DD011280BD015
:20B540000020F8BD70780C21484301230019008972462946A9DFE0E70148F8BDDC2F002011
:20B5600041800000FFFF00000230000070B50C46014660781822084D50434019382301F07D
:20B5800089FC002807D161781822514349194A68521C00D14A6070BDDC2F0020F3B585B04D
:20B5A0000D460E206946088268780C2103274843224E3B468019008904AA6946AADF0028EE
:20B5C00038D1687818214843741A001969460A8A0830FCF709FE0028687807D018214843FF
:20B5E0000119496800290DD0154E0CE00C2141438919897A89071DD4182148430019FCF784
:20B60000E8FD17E00F4E27506846028A687818214843001942606878484300196946083076
:20B62000FCF7BEFD6878182148430119382318220598B047002007B0F0BD0000F42F0020AE
:20B64000CDD2010015D1010010B5FFF737FF10BD10B5FFF78BFF10BD10B5FFF79FFF10BD6D
:20B66000F8B51E4C2078002837D02069002807D00026E068002805D00025002E04D013E0DF
:20B680000126F6E70125F8E7684651DF052806D0002806D000221146FEF79CFA04E00126B3
:20B6A00002E0216900988847002D12D1608869460880A06861DF052806D0002806D000221D
:20B6C0001146FEF787FA04E0012502E0E168A0688847002ED8D0002DCFD0F8BD3C220020BC
:20B6E000418805480288914204D34088814201D80120704700207047582200201048018C6E
:20B70000C9B2012917D1818C090714D1018D09060A0F03D1828D1206120F0ED0090F0129A8
:20B7200003D1828D1206120F07D0032903D1808D0006000F01D00020704701207047000074
:20B74000C00F00F00246002110E0505C62280BD1481C105C6C2805D1881C105C742801D107
:20B76000012070470020FCE7481CC1B21429ECDB0020F6E7800701D000207047012070470F
:20B78000F8B5234801690091457833E02048E900C0680E1834782AE0182060437168641C3D
:20B7A0000818B178E4B2A14200D100240178022902D003291BD113E0154A4068242192680B
:20B7C00041438F18397D002911D002F0D9F8002038750CE024277843C0180275006A03E060
:20B7E0000B4900228B680869471CF3D108617078A042D1D128466D1EEDB20028C6D10448D0
:20B8000001690098814201D00120F8BD0020F8BD18220020F8B504463848002701690091F4
:20B8200046785CE03548F100C2688D1851E0601C07D0324A24209268604321468018046A83
:20B8400024E02878182141436A68401CC0B252182870A978884200D12F70284B516824201A
:20B860009B684843C0181378012B34D1037D002B31D193688360D368C36013690361526922
:20B88000C2611E4A5279002A00D087601B4B82685B6996469C46D31A1A02194B120A9A423A
:20B8A00002D2C368D21808E0724663469A1A1202C368120A934202D99A1A426000E04760BA
:20B8C00087600122C7600275921E0262084602F025F8601CABD1287869788842A7D130461E
:20B8E000761EF6B200289DD1044801690098814201D00120F8BD0020F8BD0000182200208F
:20B90000FFFF7F00002490B00294274603940494FDF780FDFB4B0522022100200094FEF76A
:20B920006BFA0520FDF752FAFDF7BCFCFCF75EFEFDF7BCF901F0E4F8FDF72AFA0125F24E4E
:20B940006805B0600013B060322001F0E1F8EF4A0A211E20FEF70CFA6846EA490475002311
:20B96000482248390A2001F0D9FE009468460194047060DFE64801F0C7FEE64801F0E6FE79
:20B9800005A9284668DFFFF7D9F9FCF731FFFCF7E5FD6802F060E048017A202914D1462192
:20B9A00001724C214172412181725322C272482202735F2242734E228273C1734D21017465
:20B9C0004521417420218174D4480FC80B9308AB07C31120694608700D2208A968467CDFC7
:20B9E000002803D00D2208A968467CDF059408216846069481821421C182FF210483913175
:20BA0000418305A87ADF01F0C1FDFEF739F81C2108A8FCF7DEFB0520C00309900F2000041A
:20BA20000A900894032108A801736846C485012108A80174BA480D90BA480E9008A8FEF766
:20BA40000BFC042077DFFEF7AFF8B0481038046044608460C460FEF77BF9FDF795FBFDF798
:20BA6000B1FBB14D287800281DD0FCF7C1FE002819D1FF260136AD493046FCF71FFFFDF7D6
:20BA8000F3F80028FBD100233246A849A248FCF72FFFA7480078002804D1A6480178A64877
:20BAA000FDF7BDFA2C70A24E307800281CD02878002819D1FCF7CEFE002815D15320C002DF
:20BAC000FCF7E2FD00280FD19C4800689C4980B2FCF7F4FEFDF7C8F80028FBD19548017846
:20BAE0009548FDF79CFA3470964EF07A0028B2D0F472FCF707FC854D9348103D02882968D2
:20BB00008918296042886968891869608288A9688918A960C088E9680818E860FCF76CFDD4
:20BB2000FCF730FEFCF7FEFDFCF744FEFCF71CFEB078012830D18548017901292CD1844927
:20BB40008A78002A06D08279022A06D24471521C82711FE00122427102E00122427184714C
:20BB6000642F03D87F1CFFB2642F05D90498002700280AD00020049048780300FDF76AFC04
:20BB80000807282B2E3134373A0A0120F3E7049800281DD0FCF7EAFB6C48018A491C89B2D2
:20BBA0000182042900D256E70482FCF7F1FB28462988684D0909297081880909697004608A
:20BBC00044608460C460FDF755FB002815D017E0FDF784F8E0E704980028F9D1FDF79CF824
:20BBE000DAE704980028F9D1FDF7B4F8D4E704980028F9D1FDF7CCF8CEE7F07B002808D035
:20BC000052480521C17001203073B07801282DD064E006216846017229784172697881726D
:20BC2000A978C172E978017329794173697981734648C178491CC9B2C170052908D3C4709A
:20BC4000012102A80023642201910090072109E0042069460872012102A8002365220191E7
:20BC6000009005212020FDF7CBF9CCE7374D2879002833D1688A3649401C80B26882497868
:20BC80000B00FDF7E7FB09063232696973737A7A2B00411E272902D8FDF77AF81EE0014645
:20BCA0002939272902D8FDF755F817E001465139272902D8FDF730F810E001467939272970
:20BCC00002D8FDF70BF809E0A13827285AD8FCF74DFB03E06C8201E0012028711C4880784D
:20BCE000FDF740FAFCF7F0FCB5E6411E2729D3D928392729D7D928392729DBD9793827287B
:20BD0000DFD93FE0E824002000050050FC2200203DA30100E5D8010020270020F0DC0100BA
:20BD2000D1CB0100CDAA0100BA2100208C210020B9210020BB210020D0210020C42100201A
:20BD40009C2100200027002072210020042000204020002044200020411E27299CD928393F
:20BD60002729A0D951382728A4D90BE0411E272992D92938272896D904E0401E272801D817
:20BD8000FDF706F8A88A401C80B2A8820228A3D2A0E770B5054600790E46801C1446C0B2FC
:20BDA0001178821C8A181F2A01D90C2070BD0A46491C2170401CB0542078FF22411C2170F1
:20BDC000325420788119288801F0A4FE21784018C0B22070AA88002A09D0A968002908D02E
:20BDE0008019FCF7DDF92078297940182070002070BD072070BD000070B516460C46054600
:20BE000000F04CF80019C3B233701B2B01D9022070BD00F043F82C191E4DE8882070010A68
:20BE20006170297AA1702989090AE17029792171491C641D2971C00606D5294606220A3140
:20BE40002046FCF7ADF9A41DE888810602D529782170641C400606D56A780F492046FCF7EE
:20BE60009FF968782418A879000607D50A49AA780A312046FCF794F9A8782418E888C005E4
:20BE800005D50549EA7814312046FCF789F9002070BD0000D8210020D42D00200C490920F3
:20BEA000CA88D30600D50F20930600D5401C530602D54B78C018C0B2130602D58B78C01881
:20BEC000C0B2D20502D5C9784018C0B270470000D821002070B515460122D2032D4C9042A4
:20BEE00004D1087820724878607250E0294A01239B03D288984206D1002948D00878000395
:20BF00001043E08043E0002901D0024300E08243E28020281DD006DC042838DD082836D077
:20BF2000102834D107E0402818D080281ED0FF3801282CD123E0002905D0164806220A30D9
:20BF4000FCF72EF923E0134806210A30FCF741F91DE000291BD00878207018E0002916D0B3
:20BF60002A460D48FCF71CF9657010E000290ED009482A460A30FCF713F9A57007E0002909
:20BF800005D005482A461430FCF70AF9E570002070BD0000D8210020D42D002010B51D48CF
:20BFA0004069002803D11CA0FDF744FA10BD194988692C224B6921499847002825D120A0A5
:20BFC000FDF738FA24481D4B0ECB0EC014221B490C312248FCF7E4F821491848436A026ACD
:20BFE000806A4B600A6088601B48C27A817A1DA0FDF720FA1948FFF7A5FB002808D1FF22DC
:20C0000014211648FCF7DEF802E01DA0FDF712FA00BFCBE7403000205B575D3A20666C6188
:20C0200073682077726974652066756E63206E6F742073657474696E670D0A008830002090
:20C0400070736D207265747269766520737563632C200D0A00000000243000205C3000201E
:20C06000703000207265747269766520746F6B656E2C202530327820253032780D0A00003D
:20C080005B455D3A20666C6173682072656164206572726F720D0A0010B51548006900286B
:20C0A00003D114A0FDF7C6F910BD1B481B4A536811689268436082600160142218490C30C9
:20C0C000FCF76EF81448174B0ECB20300EC0084988692C220B6910499847002803D112A068
:20C0E000FDF7A8F902E015A0FDF7A4F900BFDBE7403000205B575D3A20666C617368207764
:20C10000726974652066756E63206E6F742073657474696E670D0A008830002024300020AD
:20C120005C30002070300020666C61736820777269746520737563630D0A00005B455D3A1E
:20C1400020666C617368207772697465206661696C0D0A0010B50020054908800548006823
:20C16000002804D00348018902680120904710BDCC2200204030002000B589B05349088807
:20C1800008AA042100F06EFA51490898884205D102205049088000F047F995E04E49089877
:20C1A000884216D104204B49088000F03DF94B48FDF7F4FD07A80C23494A0421009047483B
:20C1C00000F03CFA4749088807AA042100F050FB7AE008A80C23424A0421009000F02EFA76
:20C1E00041A00899FDF726F945490898884224D144A0FDF71FF94848007B012815D1474824
:20C200000068FDF795FE052032490880FFF744FF41480068002804D03F4801890268002046
:20C2200090473FA0FDF706F94EE03C480068FDF77FFE05202749088046E03F490898884295
:20C240003CD13EA0FDF7F6F83348007B01283BD132480068FDF76CFEFFF7A0FE02A80C2339
:20C260001F4A142100903A4800F0E8F93949088802AA142100F036FB02A80C23184A19468F
:20C280000090354800F0DAF93449088802AA0C2100F028FB32A0FDF7CDF802A80C23104A17
:20C2A0000A2100903B4800F0C9F93B49088802AA0A2100F017FBFFF74DFF05E017480068B3
:20C2C000FDF736FEFFF746FF09B000BD9A22002090CA85DECC22002000BC43CDC022002010
:20C2E000243000208222002064656372797074656420617574682C2025780D0A0000000070
:20C3000030B161AC636C6F75642062696E6420737563630D0A00000040300020BC220020E8
:20C320006D695F736572766963652C20626F6E6420737563630D0A0030BF41E9636C6F7537
:20C34000642062696E64206661696C0D0A0000005C300020A222002070300020AA220020AD
:20C36000526567697374657220737563632C6E657720746F6B656E2C20656E6372797074A2
:20C3800020736E2C20626561636F6E6B65792E0D0A0000007C3000209222002010B50446AB
:20C3A0001048007B01280CD10F480088062815D1FF220C210D48FBF705FF0DA0FDF73AF845
:20C3C0000CE009480088062808D111A0FDF732F8052005490880FFF75FFE10BDFFF7BAFEF9
:20C3E00000BFFAE740300020CC220020243000205B455D3A20534E2074696D656F75742C40
:20C4000020636C65617220746F6B656E0D0A00005B575D3A205765616B20534E2074696D81
:20C42000656F75742E0D0A0010B506480068FDF77FFD00220321C90302480068FDF736FD24
:20C4400010BD0000BC22002010B58EB014224BA102A8FBF7A5FE4E4908880CAA042100F0BB
:20C4600001F90DA80C234B4A042100900CA800F0E5F849490D98884277D148480068FDF7DE
:20C4800057FD05204649088007A80C23414A14210090444800F0D2F84349088807AA142196
:20C4A00000F020FA07A80C233A4A194600903F4800F0C4F83E49088807AA0C2100F012FAFD
:20C4C0003448C27A817A3B48FCF7B4FF07A80C23304A0A210090384800F0B0F83749088845
:20C4E00007AA0A2100F0FEF93548007B01281BD1142202A92B48FBF777FE002808D1032489
:20C50000E4030620264908802EA0FCF793FF04E00724E403072022490880002221461F48C4
:20C520000068FDF7C3FC26E0142202A91D48FBF75BFE002809D10620194908800022810391
:20C5400016480068FDF7B2FC01E0FFF7A5FD24A0FCF770FF1A48006800280CD0184801891C
:20C5600002680020904706E0FFE70C480068FDF7DFFCFFF7EFFD0EB010BD0000FFFFFFFF9A
:20C58000FFFFFFFFFFFFFFFFFFFFFFFFFFFFFFFF822200202430002092AB54FABC220020EA
:20C5A000CC2200205C300020A222002070300020AA22002084DD01007C300020922200202F
:20C5C000403000206D695F736572766963652C2077616974696E6720534E0D0A000000008E
:20C5E0005745414B206465762062696E6420737563630D0A0000000010B5074C002805D0FD
:20C6000006A0FCF717FF0120606210BD07A0FCF711FF0020F8E7000004200020617070206D
:20C62000626F6E64206661696C0D0A0061707020626F6E6420737563630D0A00F0B5C1B085
:20C6400017460C4605461A4639466846469E00F0ABFE234632462946684600F07FFE41B07A
:20C66000F0BD00007CB504460D46164600200090019068460580002141800196024908891A
:20C680006A462146A5DF7CBD4030002010B588B03548C27A817A35A0FCF7CCFE3D490888DD
:20C6A00002AA0421FFF7DEFF3B48006804902E4A07CA05AB07C3002407E02B48005D04A90C
:20C6C000095D484005A90855641C042CF5DB03A80C2305AA0421009002A8FFF7AFFF2FA086
:20C6E0000399FCF7A7FE31490398884223D130A0FCF7A0FE3348039002A80C2305AA042117
:20C70000009003A8FFF79AFF2249088802AA042100F0AEF82C480068FDF70AFC05202B497E
:20C7200008802B48006800281CD02948018902680020904716E027A0FCF77CFE02A80C2323
:20C7400005AA0421009003A8FFF778FF1149088802AA042100F08CF81B480068FDF7E8FB8C
:20C76000FFF7F8FC08B010BD243000206C6F67696E2063666D2068616E646C65722C2074A9
:20C780006F6B656E3A202530327820253032780D0A00000082220020C022002064656372F9
:20C7A00079707465642025780D0A000009ACBF936C6F67696E2063666D20737563630D0A24
:20C7C00000000000C9589A36BC220020CC220020403000206C6F67696E2063666D20666176
:20C7E000696C0D0A0000000030B5C3B0044611786846469D0170917841705179817019781A
:20C80000C1701978017111794171517981715178C1710146082202A800F0C6FD0C232A4684
:20C82000214602A800F09AFD43B030BD30B5C3B0044611786846469D0170917841705179CF
:20C8400081705978C1701179017111784171517981711978C1710146082202A800F0A4FD83
:20C860000C232A46214602A800F078FD43B030BDF0B587B004460D46164600270020059012
:20C880000690684685820021C18206961349088905AA2146A4DF0746002F02D0384607B044
:20C8A000F0BD0E4800890E49884214D0002001900290039004906846848001218171C18A6C
:20C8C000018105A80390069804900449088901A9A6DF074600E008273846E0E74030002026
:20C8E000FFFF00007CB504460D461646002000900190684605800021418001960249088947
:20C900006A462146A4DF7CBD4030002010B586B01949088801AA1421FFF7A4FE142201A96F
:20C920001648FBF73DFC15480C23154A14210090FFF784FE13A0FCF77DFD002406E00F48C5
:20C94000015D12A0FCF776FD601CC4B2142CF6DB10A0FCF76FFDFFF79FFB0F48007B0128C4
:20C9600005D107200D490880FFF75EFD02E005200A49088006B010BDA22200205C30002096
:20C9800024300020736E3A200000000025303278000000000D0A000040300020CC22002034
:20C9A000F8B505460E4612A0FCF744FD324629466846FBF7F5FB0727002415E0E00012494C
:20C9C000085C1249098888420DD1E0000E494018408869460988884205D1E1000A4A891852
:20C9E00048688047F8BD641CBC42E7DB00BFF9E7456E746572207374617465206D61636834
:20CA0000696E650D0A0000004CDD0100CC22002000B585B01649088802AA0C21FFF722FEC3
:20CA2000144840890190144801AB144A0021009002A8FFF7D9FE03201149088011480068EC
:20CA4000FDF776FA00220321C9030E480068FDF72DFA02A801AB094A00210090FFF7E6FE53
:20CA60000349088802AA0C21FFF702FF05B000BD822200204030002024300020C5220020C9
:20CA8000CC220020BC220020F8B514780746A01C15460E461F2803D87878801C1F2801D9CA
:20CAA0000C20F8BD1D20001B80B26946864608803019801C7DDF0028F3D13878022805D12B
:20CAC00068460088704501D8092107E078780821002801D0704501D968460088421C3255C5
:20CAE000641CE2B2B1542978801C081828700020F8BD0020704700207047002070470000CE
:20CB000002481A2141600121016070470075004031B5054C04E0401E00902046FBF7DAFACB
:20CB200000980028F7D138BDE7030000012181400148C16070470000000500500121814052
:20CB400001488160704700000005005070B515460E46002403E0305DFBF766FC641CAC4275
:20CB6000F9DB70BD10B503881649174A174C102B0BD0112B0FD0172B14D0192B04D18079D8
:20CB8000002801D1FDF710F810BD01234B70D3708088208110BD002048700320D070001FE0
:20CBA0002081EFE7811D094806222830FBF7F8FA0648283000788428ECD11321208976DFF2
:20CBC00010BD00000027002040200020042000200078002803D102483B21008976DF7047CE
:20CBE0000420002070B505460C46A0882881034871DF03A0FCF71EFC70BD0000C4220020E0
:20CC00004F6E20436F6E6E65637465640D0A00000022D24302817047F8B506460D46AC1D07
:20CC200020881E490988884210D1208B042802D0208B0C280AD104200090194A022168465E
:20CC4000FDF714F817A0FCF7F5FB00BF20881B49098888420DD1208B04280AD102200090D2
:20CC60000F4A02216846FDF701F815A0FCF7E2FB00BF20881749098888420DD1208B142831
:20CC80000AD120200090064A02216846FCF7EEFF11A0FCF7CFFB00BFF8BD00008222002042
:20CCA000A1C901004F6E20546F6B656E205772697474656E2C200D0A000000009A220020DF
:20CCC0004F6E2041757468205772697474656E2C200D0A00A2220020534E204172726976CC
:20CCE00065640D0A0000000070B505461C200B4968434418204611300621FBF76AFA2046C3
:20CD00001021FBF766FAFF2121740020A176C0432083284600F004FF70BD0000FC2E002026
:20CD200007490978002906D0002806D005494978016000207047082070470E20704700001A
:20CD4000E8210020F42D002070B5124B1B78002B18D0002818D0002A16D00368022B0FD2A8
:20CD60000D4C1E01A559002D0AD0456830190489614369184589406865432818884205D889
:20CD8000072070BD082070BD0E2070BD13600020516070BDE8210020C02E0020F8B50446F0
:20CDA0001B480E460078002823D0002C23D0206802281CD2174D00012958002917D040191B
:20CDC00041890289406851430918606881420ED9FEF7D0FC002810D02168606809014919A9
:20CDE0004A680989801AFBF7B1F9002907D00720F8BD0820F8BD0E20F8BD1020F8BD002018
:20CE000002460090334621460420FDF7A1FDF8BDE8210020C02E002070B500251A4C1B48A5
:20CE2000A58065700570457085702E463046FDF77FFD761C0A2EF9D31548658041690604F3
:20CE4000491C05D03169406989B2FBF77FF900E070693169C01E89B24843A0600B49002243
:20CE60002846A580CC311301C8505B1818819881521C5881022AF6D303490C31086088809C
:20CE800001212170607070BDE8210020F42D002000100010FFB5274881B000781F461646CB
:20CEA0000C4600281FD0002C1FD0019800281CD02068022814D2204D0001295800290FD0B2
:20CEC00041194A8908894968424351186268914206D9002E04D0B04202D3F119814206D904
:20CEE000072005B0F0BD0820FBE70E20F9E70198FEF740FC00281AD03846FEF73BFC0028E3
:20CF000015D06068FEF736FC002810D060683246C1190198FBF744F9009620680022000112
:20CF20002D5803212046019BA8470020D9E71020D7E70000E8210020C02E002008B50E4A3D
:20CF40001278002A05D0002805D00268032A11D103E0082008BD0E2008BD074A0C32126806
:20CF6000002A07D00B460022014604200092FDF7EFFC08BD072008BDE82100200D4A1278A6
:20CF8000002A0DD000280DD000290BD00268002A08D0084A0C321368002B05D0042070472F
:20CFA000082070470E20704703230B600068106000207047E8210020F8B5044616481E468B
:20CFC000007817460D46002807D0002D07D0002C05D0206803281BD103E00820F8BD0E2098
:20CFE000F8BD0D480C300068002811D00846FEF7C1FB00280ED03046FEF7BCFB002809D052
:20D000003B462A46214602200096FDF7A1FCF8BD0720F8BD1020F8BDE8210020F8B50446D9
:20D0200039480F46007800281DD0002C1DD0002F1BD02068002818D001252D07A6882869A9
:20D0400080B2864230D8102E2ED3E088009000282AD02E484169491C09D02969406989B2A1
:20D06000FBF774F804E00820F8BD0E20F8BD68692969401E89B24843234B00999D68714367
:20D080004B19984210D301200007006980B2814208DD012000070069314680B2FBF756F88A
:20D0A000002901D1B00701D00720F8BD1648418802291AD0164822C70A01161875602368F5
:20D0C0008350A0883081E0887081A088E3880022584301231B07521C1C6992B2A4B2844262
:20D0E00005D21C69A4B2001B02E00420F8BD00201C69A4B265190028EDD10348491C8560B4
:20D10000B28141800020F8BDE821002000100010C02E0020F8B5044620481E460078154659
:20D120000F4600281DD0002F1DD0002C1BD02068022814D201011A484258002A0FD0091892
:20D140004A8908894968424351186268914206D9002D04D0A84202D3A919814205D9072006
:20D16000F8BD0820F8BD0E20F8BD3846FEF702FB002811D03046FEF7FDFA00280CD0606893
:20D18000FEF7F8FA002807D02B463A46214602200096FDF7DDFBF8BD1020F8BDE82100200A
:20D1A000C02E0020F8B507460020464E8646B07801281ED10020444BB0705A78082A19D0EB
:20D1C00034462578142169430C19022F20D0032F0FD16079401CC0B26071241D03286AD0E1
:20D1E000FDF71CFB002804D0112802D02146FCF703FDF8BD022F09D01870FDF785FB0028E0
:20D20000F7D0317814225143891959E05870F4E72D498B885B1C9EB28E802379241D022BEE
:20D2200005D16788B102B94201D3012100E000218C46052B01D1072A03D00021042B02D08A
:20D2400003E00121FAE7072A03D00027042B02D007E00127FAE76488B302A34201D3002A48
:20D2600027D00022394311436246114317D0164A1449507090804878401E4870681CC0B289
:20D2800008700A2801D30A3808701420684341187046091DFCF7B0FC2846FDF749FBFDF709
:20D2A00033FB0028A5D0074914230A785A43511806E00122D6E730781421484381190D209F
:20D2C000091D94E7F42D0020E8210020F8B5044620481E46007815460F4600281DD0002F14
:20D2E0001DD0002C1BD02068022814D201011A484258002A0FD009184A89088949684243D0
:20D3000051186268914206D9002D04D0A84202D3A919814205D90720F8BD0820F8BD0E201E
:20D32000F8BD3846FEF726FA002811D03046FEF721FA00280CD06068FEF71CFA002807D040
:20D340002B463A46214605200096FDF701FBF8BD1020F8BDE8210020C02E0020FFB581B014
:20D360001E46044600251BE0E71DF9373878401CC0B238707978225C00198918C9B27970F8
:20D38000091900F0EFF938787978205C615C40180299C0B2495D205C4140039841556D1CF7
:20D3A000B542E1DB05B0F0BDF7B505460E4600202854401CFF28FBDD0021E81DF930017056
:20D3C0000C464170274620460299FAF7D5FE705C295D4018C019C7B2E919281900F0C2F92E
:20D3E000641CFF2CEFDDFEBD70B501240B49600408600B4940108860094940398860094DFC
:20D400006C602F20FAF776FEAC60074D00242F206C61FAF76FFE2C7170BD000080E100E083
:20D4200040130140001001401822002070B500240546601C90B00007000F08A910300894BA
:20D440000870601C0007000F103048708878F9263040801C88701C2101A8FAF7BAFE694669
:20D4600008791021084369460871029408A80494059407940690287808A9887103206946C3
:20D48000888411200094087048708878F7213040801C0840EF210840012630436946887086
:20D4A00014210AA8FAF795FE09A80A9068460B9069460E8614204C8688862B4668880C3376
:20D4C0000AAA01A9A2DF10B070BD0000F0B500220123032636041F469740394212D0C5686C
:20D4E0003D4203D1012464043D4301E03446BD43C560064D97007D192F68B7432F602F6815
:20D5000027432F60521C202AE5D3F0BD00070050F7B582B002981446806A0F46002833D062
:20D52000029800252030009028E00298816A0C2068430E18217830794A1C2270C01C7854E0
:20D5400020781622411C21703A542078C119308800F0E0FA21784018C0B22070B288002A34
:20D5600009D0B16800290FD0C019FAF719FE20783179401820706D1C0098EDB2007BA84281
:20D58000D3D8002005B0F0BD0720FBE710B521A207CA90B00CAB07C3FDF722F8204806229D
:20D5A0000CA90446FAF7FCFD4021684681850121C1851C480A901C490AA8FFF72FFD0028A6
:20D5C00025D01AA0FBF736FFFF21573168468180002181711E480090134807901D48059029
:20D5E0001D48069001A80A2221460330FAF7D8FD0120014608A8103101710120014608A818
:20D60000103141716846FCF7B5FE10B010BD13A0D8E70000312E302E315F303030310000B6
:20D620004A270020899F0100382000205B455D3A206D69696F20626C6520666C6173682012
:20D640007265676973746572206661696C0D0A00F9C50100A1A0010081A001005B445D3A39
:20D66000206D69696F20626C6520666C61736820726567697374657220737563630D0A00F1
:20D6800010B50B4A03238400A418236004238C00A2181360074AD060516107485062136000
:20D6A000064901208860086005490020886010BD000700500025004000E0D70100200040B3
:20D6C00000210040044881680129FCD10021816002488069C0B27047002100400025004099
:20D6E0000449C8610448C1690129FCD10021C16170470000002500400021004010B5084674
:20D700001146C046C04610BD002803D00249C860002070470E2070473C22002070B50029E3
:20D7200001D08C0701D0072070BD064C0125A16062800549636010DF0028F5D1257016204C
:20D740002EDF70BD3C220020FDD60100002803D002490861002070470E2070473C22002054
:20D760000020704702780B7803700A7070470000FFB583B00F46594D069A059906466B78E2
:20D78000114303200191002B03D100290FD001216970059A697801249200240700920B007F
:20D7A000FBF758FE073207213454748332000221EEE74B484169491C05D02169406989B232
:20D7C000FAF7C4FC00E060692169401E89B24843216909048A0C216989B2794329DF002863
:20D7E00012D102210FE0384628DF00280CD10599002901D0032106E0069900291FD13178A7
:20D80000042968D020E0697007B0F0BD34484169491C05D02169406989B2FAF797FC00E034
:20D8200060692169401E89B241432069059A80B2784329DF0028E7D10699002901D00421BD
:20D84000E1E7317804292ED00521DCE724484169491C05D02169406989B2FAF777FC00E041
:20D8600060692169401E89B248437188421800981018226992B27A435218009953180146DD
:20D880001846069A29DF0028DBD0BDE72069718880B2784380188A08316929DF0028B3D124
:20D8A0000199002917D00621ADE70D484169491C05D02169406989B2FAF748FC00E060697E
:20D8C0002169401E89B24843216989B2FAF73EFC28DF002898D1072195E70000E821002045
:20D8E0000010001010B50446FFF75CFC022C09D0032C07D104484178002903D000214170CA
:20D90000FCF752F910BD00000420002001200249000508607047000000E200E0F0B5174F5B
:20D920002421BC6841430D1939694A1C09D024224A4316196B687268934204D8D21A7260D5
:20D9400029623861F0BD0A4602E00A46396A9B1B4E1C0BD024264E4337197E689E42F4D31E
:20D9600024264E4336197768FF1A77606B60296224214A4311190862F0BD000018220020EB
:20D9800070B5194C2269A5681346114606E0814207D00A46242671434919096A4E1CF6D1E1
:20D9A00070BD002EFCD08A420CD1242043435819006A2061401C05D10C4B012098600023AC
:20D9C00063616071242041434819242341685A43006A52191062421CE2D024225043401973
:20D9E00042685118416070BD1822002000100140F8B51A4C2569681C2FD019480026406848
:20DA00006169401A07023F0A13E024204543A0682A185068B8420ED8A3693F1A8619156A6C
:20DA2000002B03D0D1699069984702E09169D0698847681CE9D1A178E078814206D1401C4D
:20DA4000C0B2E070022801D10020E07003490006800D1C310E50FFF759FFF8BD18220020B1
:20DA60000015014070B58EB005461C216846FAF7B0FB694608780C21084369460870002429
:20DA800001940394049405940694287808A98870022069460884601C0007000F103007947C
:20DAA000087711204877887FF9210840F721801C0840EF21084001263043694688771421BD
:20DAC00009A8FAF786FB08A8099007A80A9069468E851420CC85088668882B1D09AAA2DF50
:20DAE0000EB070BD10B5FBF77DFC07490420486006490A68FF231B049A4303051A430A6041
:20DB00000349086010BD00000023004000E400E000E100E00870000A487002207047000089
:20DB200001218140024842688A434260704700006822002038B51549154A488890420FD013
:20DB40004A78144C521CD2B24A70237B934208D3083175DF002803D0A169002900D088474F
:20DB600038BD00254D70217C002907D03B2176DF002803D0A169002900D0884761690029C0
:20DB8000EED068460570884738BD000050220020FFFF0000E02E002012494868C005C00D85
:20DBA00019D0103840B2002807DA0207120F083A920892005118C96904E081080A4A8900BC
:20DBC000891809688007C00EC1400806800F012803D0032803D00220704700207047012075
:20DBE0007047000000ED00E000E400E042788378521C934200D100220378934201D10020B0
:20DC000070470A60416840781822504308187047F8B51546069C1E4607460222009400F0DB
:20DC20000AF8002806D13346102229463846009400F001F8F8BDFFB583B0074600200C9C1D
:20DC40008646267805463AE07868A90041180A88684682804988C1800022694601A865DF01
:20DC6000002810D1684601780598814226D17046002801D0002200E00222207889184118B6
:20DC80001F2902D90C2007B0F0BD7146002908D1401CC0B2411C069B049A21701A5401208E
:20DCA0008646217806980A18694601A865DF0028E9D1694620780978401820706D1C3888C8
:20DCC000A842C1DC7046002804D020780699801B401E88550020D6E79ECADC240EE5A9E03D
:20DCE00093F3A3B50000406E01000200010002004D49536300000000000000000000000046
:20DD00004E334D2D4E696E65626F742D4D696E69303030310000000000000000FBCA0100F8
:20DD20009DB50100B9B4010059B60100F7CA01006DB50100B5B4010051B60100F3CA0100FD
:20DD4000BDB40100B1B4010049B601000000020079C101000500020079C101000200040066
:20DD600011CA01000300040049C40100040004008DC60100060020000DC901000700020050
:20DD800079C10100526567697374657220737563632C6E657720746F6B656E2C20656E63FC
:20DDA0007279707420736E2C20626561636F6E6B65792E206E657720746F6B656E3A25302E
:20DDC000327820253032780D0A000000ECDD010000200020D0020000CA82010000DE01005B
:20DDE000D0220020E81500007E940100440024F46201033DFFFF03FF5A5AC102FF01017D0D
:020000040002F8
:20980000B8380020158101002F81010031810100000000000000000000000000000000003D
:20982000000000000000000000000000338101000000000000000000358101003781010003
:2098400039810100398101007D910100398101003981010000000000658901003981010063
:20986000398101003991010039810100398101003981010039810100398101003981010000
:20988000398101004D90010039810100398101006D90010039810100C190010039810100F3
:2098A000398101003981010000000000000000000000000000000000000000000000000032
:2098C0000348854600F0CEF80048004705B90100B8380020401E00BF00BF00BF00BF00BF45
:2098E00000BF00BF00BF00BF00BF00BF00BFF1D170470000401E00BF00BF00BF00BF00BF9D
:2099000000BF00BF00BF00BF00BF00BF00BFF1D1704700000321094802680A4302600848B7
:2099200002680A4302600748804707480047FEE7FEE7FEE7FEE7FEE7FEE70000240500409B
:2099400054050040E5900100C180010030B50B46014600202022012409E00D46D5409D4282
:2099600005D31D469540491B2546954040191546521E002DF1DC30BD70B50024254600284C
:2099800001DA01244042002901DA01254942FFF7DDFFAC4200D04042002C00D0494270BDCA
:2099A00003460B439B0703D009E008C9121F08C0042AFAD203E00B780370401C491C521EE4
:2099C000F9D27047D2B201E00270401C491EFBD270470022F6E710B513460A4604461946D1
:2099E000FFF7F0FF204610BD30B504460020034600E05B1C934203D2E05CCD5C401BF8D02E
:209A000030BDF0B51FB40646002082B005464024019100901BE0019922460F46304600F0BA
:209A200043F8049A059B801A994110D310461946224600F029F8361A8F41019722460120E7
:209A40000021009F00F020F838184D4100902046641E0028DFDC019B00982946324607B033
:209A6000F0BD0000064C0125064E05E0E36807CC2B430C3C98471034B442F7D3FFF724FFB8
:209A8000CCDD0100ECDD010010B5202A04DB0146203A9140002010BD914020239C1A0346F2
:209AA000E3401943904010BD10B5202A04DB0846203AD040002110BD0B46D340D04020243E
:209AC000A21A91400843194610BD30B58C180278401C13071B0F01D10378401C120906D144
:209AE0000278401C03E005780D70401C491C5B1EF9D101E00B70491C521EFBD1A142E6D316
:209B0000002030BD10B5184C2078A31C00280FD0012816D002281DD0032808D101F0F0FAAC
:209B200098800621022001F007FB0020207010BD01F0E6FAD8800321022001F0FDFA0120DC
:209B4000F4E701F0DDFA18800421022001F0F4FA0220EBE701F0D4FA58800521022001F0E0
:209B6000EBFA0320E2E700007021002010B5152004F0DCFB1D2004F0D9FB002004F0D6FBB4
:209B80001E2004F0D3FB0E2004F0D0FB10BD000010B51EA30FCB86B001AC0FC41F484189C4
:209BA0004A1C42810A291CD300211D4A41815278002A16D182781B4C002A14D0817074DF82
:209BC0001120694608700D22214668467CDF002803D00D2201A968467CDF01F051FB01F083
:209BE000E3FB06B010BD0121817074DF1120694608700D22214668467CDF002803D00D227D
:209C000001A968467CDF01F099FBE8E74D4953636F6F7465723030303100000004200020C3
:209C2000002700202827002070B5254C0025A178002931D0E178234E0029705406D1021DC3
:209C4000D2B22271922A01D9A57035E0491CCAB2E2701B4B2179DB888A421AD1B0182038C0
:209C6000827F9B1ADB439BB2E380C07F0002101880B2834204D11349002000F0FBFC04E0E4
:209C8000002000E0401C8842FCDBA5706570E57013E01818E08070BD094901224978552825
:209CA00002D0AA2804D007E0002905D1627070BD002901D0A27000E06570E58070BD0000F4
:209CC0007A210020BE2C0020FEB5174D089E2F780024002F26D101272F708E2920D8134F39
:209CE0000197009600F018FA14210090FFF72EFE461C074612E0BC4208D1204614214843AF
:209D000000990A4A091A89B2801804E01420074960434018142102F077F8641CB442EAD334
:209D200000202870FEBD00007A210020282C002010B5FF2401340749204600F0BFF90023E3
:209D400022460449044800F0D3F900F08DFB0028FBD110BD8C2100202027002010B58AB0DA
:209D60001C221B496846FFF71BFE1AA207CAFF240134099208910790002322461849194887
:209D800000F0B0F900F070FB0028FBD115480178552902D14078AA2817D012482038007D14
:209DA000012812D0224610490E48FFF7F9FD0D48192269460830FFF7F3FD0A480A2207A90A
:209DC0002A30FFF7EDFDFFF7B3FF0AB010BD000000DD0100312E302E315F3030303100002E
:209DE0008C210020202700204A200020014903200860704724070050F8B5204D204EE878B6
:209E00000627204C002812D0217800290FD10121F170012804D0022804D0032807D104E098
:209E2000102100E05021A17001E06170A77020706078A178084302D0E078002808D00920A7
:209E400004F074FAE078002814D0401EE070F8BD092004F073FAA078002802D0401EA070CF
:209E6000F8BD60780028FBD0401E60700820E070A770F8BD0020E870F070F8BD40200020E3
:209E8000442000206C21002010B504460C490020087004F0C1FB002810D1411E08482030DD
:209EA00081800121C180074901600146083904F065FC002802D1024918314C6010BD0000A8
:209EC00084210020798801000D4A537A00210D48002B0AD08181012393725172917A0029FA
:209EE00002D0C189491CC181704783895B1C9BB28381322BF2D3322383819172EEE70000C1
:209F0000002700200420002010B500231A4604E0845CE318521C9BB2D2B28A42F8D3D843BE
:209F200080B210BD10B50D4C637D0D480D4A8178002B06D0012319438170FF209130D061FC
:209F400008E0D369002B02DD5B1ED36102E04908490081700020607510BD000000270020B0
:209F60004420002004200020044800788107044801D5012100E00021C1747047402000201C
:209F80000027002009498B7B09480022002B04D00123CB73FF23913303E08369002B02DD8F
:209FA0005B1E836100E0CA738A737047002700200420002010B50B490B4A0C780B48E307B9
:209FC00004D001239374C822026207E0036A002B02DD5B1E036201E000209074600840004B
:209FE000087010BD40200020002700200420002070B515490020087004F00EFB002822D1DE
:20A00000114801214902103081800121C1800F4901600146083904F0B1FB040013D10C48B9
:20A0200041690504491C05D02969406989B2FFF78DFC00E068692969C01E89B2484302490C
:20A0400008314860204670BD84210020798801000010001038B50024684604F061FA0098FF
:20A06000002807D0012004F053F92046641C6428F2D9012038BD00000F48022917D0032998
:20A0800010D0042907D005290BD1002A09D10178F722114004E0002A03D1017849084900F6
:20A0A00001707047002AFCD10178FD22F1E7002AF7D10178FB22ECE78421002010B5084CD8
:20A0C0000A4621780123194321700146104604F035FB002803D0217849084900217010BD39
:20A0E0008421002010B54968FFF75AFC10BD000070B5084C0D462178042631432170014631
:20A10000284604F059FB002803D02178FB221140217070BD84210020F0B5069C5527059E9E
:20A120002770AA27677005468F1CA770E570002022716371062505E0325C62556D1C401CBD
:20A14000EDB2C0B28842F7D3A81EC1B2A01CFFF7DBFE60556D1CE9B2000A6054491CC8B220
:20A16000F0BD0000F0B52A4885B0046929480021C1630E46284F45E01420796870434518AE
:20A180000120B968B04008423AD0002000900390E8682968C04360400840014602902846E3
:20A1A00004F094FD1A48006929686040084016D0224642400192E868C04350400840014601
:20A1C0000090284604F082FD019A0098A968904301400391009869680240114000910298FB
:20A1E000A968A04301400398029A0143686822401040009A104302460A4301D02A69904770
:20A20000761CF6B278788642B6D305B0F0BD00000005005040610040FC210020F0B50746FC
:20A2200087B0C87805900E780D46002002A90191049000900446EB78AA786878012100F0F7
:20A2400009F9012F02D124206946487273488168002903D00021816007B0F0BD6F4801216D
:20A2600081600171A878072806D0082833D0092875D00A2875D1C4E00422291D04A8FFF793
:20A280008FFB00F0DDF8012F05D165484078002801D101F09CF8062E63D16148807C002850
:20A2A00001D00A245EE0049A5E49501E88427DD85D480023C370594801218170C26041700D
:20A2C0000371C770183001900093AA781946242000F0C0F84AE05148C16800296BD0027830
:20A2E00005998A4233D10178491C01700169B61EC0688919803081425DDA31464B48FFF7EF
:20A3000068FB8022291D4948FFF74AFB002F03D100F0AAF80028FBD140480069B2B283B213
